:100000000C942A000C944C030C944C030C944C0359
:100010000C944C030C944C030C944C030C944C0324
:100020000C944C030C944C030C944C030C944C0314
:100030000C944C030C944C030C944C030C944C0304
:100040000C94BE000C944C030C944C030C944C0385
:100050000C944C0311241FBECFE5D8E0DEBFCDBF0A
:10006000E4E5F0E040E017C0B591A5913591259108
:10007000059107FD0CC095918591EF01F92FE82FAF
:1000800005900D92A217B307D9F7FE0104C01D9287
:10009000A217B307E1F7E435F40731F70E947C02B9
:0800A0000C945200F894FFCF0C
:1000A8000FC00E94310338F00E94380320F09523D6
:1000B80011F00C943F030C94490311240C942B0366
:1000C8000E94C00170F3959FC1F3950F50E0551F32
:1000D800629FF001729FBB27F00DB11D639FAA2795
:1000E800F00DB11DAA1F649F6627B00DA11D661FE4
:1000F800829F2227B00DA11D621F739FB00DA11D05
:10010800621F839FA00D611D221F749F3327A00DBE
:10011800611D231F849F600D211D822F762F6A2F5A
:1001280011249F5750409AF0F1F088234AF0EE0FBF
:10013800FF1FBB1F661F771F881F91505040A9F7EC
:100148009E3F510580F00C943F030C942B035F3FB6
:10015800E4F3983ED4F3869577956795B795F79528
:10016800E7959F5FC1F7FE2B880F911D96958795A0
:0401780097F9089556
:10017C001F920F920FB60F9211242F933F934F9310
:10018C005F936F937F938F939F93AF93BF93EF93F3
:10019C00FF930E94900264B175B180E090E00E94E0
:1001AC00FE002AE137E64CE950E40E9445030E9428
:1001BC002303CB010E9445022FEF89E698E12150E1
:1001CC0080409040E1F700C000000E944E03FF9178
:1001DC00EF91BF91AF919F918F917F916F915F91B3
:1001EC004F913F912F910F900FBE0F901F9018952C
:1001FC00E89409C097FB3EF49095809570956195B5
:10020C007F4F8F4F9F4F9923A9F0F92F96E9BB276A
:10021C009395F695879577956795B795F111F8CFE6
:10022C00FAF4BB0F11F460FF1BC06F5F7F4F8F4F51
:10023C009F4F16C0882311F096E911C0772321F047
:10024C009EE8872F762F05C0662371F096E8862FDF
:10025C0070E060E02AF09A95660F771F881FDAF736
:0A026C00880F9695879597F908957D
:1002760061E070E080EF90E00E94C70261E070E00C
:1002860081E090E00E949E0161E070E082E090E0F3
:100296000E949E0161E070E083E090E00E949E0172
:1002A6002FEF89EF90E0215080409040E1F700C0A9
:1002B600000060E070E082E090E00E94E20182E0EF
:1002C6000E94030288E20E9403028CE00E9403025D
:0802D60081E00E94030208957B
:1002DE000E94C80188F09F5798F0B92F9927B751FF
:1002EE00B0F0E1F0660F771F881F991F1AF0BA95CC
:1002FE00C9F714C0B13091F00E942A03B1E00895FD
:10030E000C942A03672F782F8827B85F39F0B93FEE
:10031E00CCF3869577956795B395D9F73EF490957E
:0E032E008095709561957F4F8F4F9F4F08957A
:10033C006115710521F06130710579F0089547B3AD
:10034C0021E030E0B90102C0660F771F8A95E2F711
:10035C00CB018095842387BB089547B321E030E01F
:10036C00B90102C0660F771F8A95E2F7CB01842B87
:04037C0087BB08959E
:1003800057FD9058440F551F59F05F3F71F0479546
:10039000880F97FB991F61F09F3F79F0879508952B
:1003A000121613061406551FF2CF4695F1DF08C04A
:1003B000161617061806991FF1CF86957105610567
:0403C0000894089500
:1003C4006115710581F061307105D1F448B321E004
:1003D40030E0B90102C0660F771F8A95E2F7CB01BE
:1003E400842B88BB089548B321E030E0B90102C0F2
:1003F400660F771F8A95E2F7CB018095842388BB2B
:02040400089559
:10040600CF93C82FC19885B38F709C2F907F892B6F
:1004160085BB0E940C0385B3282F2F7030E1C39F44
:10042600C0011124822B85BB0E940C038FEF99EF2C
:1004360020E0815090402040E1F700C00000CF91BD
:02044600089517
:10044800CF93C82FC19A85B38F709C2F907F892B2B
:1004580085BB0E940C0385B3282F2F7030E1C39F02
:10046800C0011124822B85BB0E940C038FEF99EFEA
:1004780020E0815090402040E1F700C00000CF917B
:020488000895D5
:10048A00CF93DF93CDB7DEB72B970FB6F894DEBFC5
:10049A000FBECDBF4AE0BE016F5F7F4F0E940103CE
:1004AA00CE0101960E94E7022B960FB6F894DEBFA2
:0A04BA000FBECDBFDF91CF91089572
:1004C400BB27FB015527AA27880F991FAA1FA4172A
:1004D40010F0A41B83955051B9F7A05DAA3308F01E
:1004E400A95DA193009779F7B111B1931192CB0152
:0404F4000C94D7028B
:1004F8000E943B0147E060E082E10E94A3027894F9
:100508002FEF83EC99E0215080409040E1F700C044
:0805180000000E944E03FFCF1A
:10052000C19885B38F7085BB0E940C0385B38F7013
:10053000806185BB0E940C038FE19EE40197F1F777
:0605400000C00000089558
:10054600CF93DF93D62FC42F0E9415038D2F0E94C1
:10055600F6028C2F0E941C030E9452030E94500335
:06056600DF91CF91089522
:10056C00092E0394000C11F4882352F0BB0F40F4B5
:10057C00BF2B11F460FF04C06F5F7F4F8F4F9F4FF5
:02058C000895D0
:10058E006115710521F06130710531F0089594B354
:10059E008095892384BB089594B3892B84BB0895D9
:1005AE00DC01FC01672F71917723E1F7329704C0CC
:1005BE007C916D9370836291AE17BF07C8F3089557
:1005CE00CF93DF93EC018881882331F021960E942E
:0E05DE00240289918111FBCFDF91CF91089506
:1005EC0097B19F7397B927B130E4839FC001112451
:0605FC00822B87B908956F
:10060200BB274A3031F4992322F4BDE290958195BB
:060612009F4F0C946302EF
:10061800C39A8FE19EE40197F1F700C00000C398E8
:02062800089533
:0E062A0097B1907E97B997B1892B87B9089543
:0E06380096B1987F96B996B1892B86B9089530
:0E0646000E946F016894B1110C942B0308956B
:0E065400E894BB2766277727CB0197F9089516
:0E06620000240A9416161706180609060895B5
:0E06700000240A9412161306140605060895B7
:0C067E0097F99F6780E870E060E0089545
:08068A000E9454000C94B6021A
:060692009FEF80EC0895CB
:040698000C940000BE
:04069C00369A0895ED
:0406A000379A0895E8
:0406A400339A0895E8
:00000001FF
