:100000000C942D000C9429020C9429020C942902C2
:100010000C9429020C9429020C9429020C942902B4
:100020000C9429020C9429020C9429020C942902A4
:100030000C9429020C9429020C9429020C94290294
:100040000C9429020C9429020C9429020C94290284
:100050000C94290200600080800011241FBECFE5AF
:10006000D8E0DEBFCDBFE4E5F0E040E017C0B591D9
:10007000A59135912591059107FD0CC0959185912C
:10008000EF01F92FE82F05900D92A217B307D9F7CA
:10009000FE0104C01D92A217B307E1F7E935F4078A
:0E00A00031F70E9457000C945500F894FFCFE2
:1000AE000E94B50061E070E08FEF90E00E94D701F2
:1000BE0063E070E081E090E00E94B6012FEF80E7F0
:1000CE0092E0215080409040E1F700C000000E9475
:1000DE001E022FEF81EE94E0215080409040E1F718
:1000EE0000C00000C0E7D0E00F2EF1E4FF2EF02D8F
:1000FE0002E413E4F88209831A832FEF83EC99E06C
:10010E00215080409040E1F700C000000E940F0295
:10011E002FEF83EC99E0215080409040E1F700C032
:10012E00000043E050E0BE0187E090E00E940E0127
:10013E002FEF80E792E0215080409040E1F700C021
:10014E00000043E050E060E670E087E090E00E943F
:0C015E00E90080E690E00E94F701CCCFA1
:10016A0061E070E080EF90E00E94D70161E070E00A
:10017A0081E090E00E94310161E070E082E090E06D
:10018A000E94310161E070E083E090E00E94310159
:10019A002FEF89EF90E0215080409040E1F700C0B6
:1001AA00000060E070E082E090E00E94530182E08B
:1001BA000E94740188E20E9474018CE00E9474011A
:0801CA0081E00E947401089518
:1001D200FF920F931F93CF93DF93C82F8B01F42EBF
:1001E2000E94170283E00E9425028C2F0E942502A2
:1001F200FF2059F0E8010F0D111D80E00E94250239
:100202008FB18993C017D107C1F70E941E02DF91F7
:0A021200CF911F910F91FF90089506
:10021C00FF920F931F93CF93DF93C82F8B01F42E74
:10022C000E94170282E00E9425028C2F0E94250258
:10023C00FF2049F0E8010F0D111D89910E94250244
:10024C00C017D107D1F70E941E02DF91CF911F91E9
:06025C000F91FF900895D0
:100262006115710521F06130710579F0089547B388
:1002720021E030E0B90102C0660F771F8A95E2F7EC
:10028200CB018095842387BB089547B321E030E0FA
:10029200B90102C0660F771F8A95E2F7CB01842B62
:0402A20087BB089579
:1002A6006115710581F061307105D1F448B321E023
:1002B60030E0B90102C0660F771F8A95E2F7CB01DD
:1002C600842B88BB089548B321E030E0B90102C011
:1002D600660F771F8A95E2F7CB018095842388BB4A
:0202E600089579
:1002E800CF93C82FC1988BB38F709C2F907F892B89
:1002F8008BBB0E9406028BB3282F2F7030E1C39F5F
:10030800C0011124822B8BBB0E9406028FEF99EF4C
:1003180020E0815090402040E1F700C00000CF91DC
:02032800089536
:10032A00CF93C82FC19A8BB38F709C2F907F892B44
:10033A008BBB0E9406028BB3282F2F7030E1C39F1C
:10034A00C0011124822B8BBB0E9406028FEF99EF0A
:10035A0020E0815090402040E1F700C00000CF919A
:02036A000895F4
:10036C00CF93C62F4DB19C0122953295307F322709
:10037C00207F3227242B2DB9892B51F061E070E0BE
:10038C0080EB90E00E94E7018DB1C82BCDB906C07F
:10039C0061E070E080E490E00E94E7016E9ACF91FA
:0203AC000895B2
:1003AE006115710521F06130710531F008959AB330
:1003BE00809589238ABB08959AB3892B8ABB0895A9
:1003CE006115710521F06130710531F0089597B313
:1003DE008095892387BB089597B3892B87BB089592
:1003EE00CF93DF93EC018881882331F021960E9410
:0E03FE00950189918111FBCFDF91CF91089578
:10040C00C39A8FE19EE40197F1F700C00000C398F6
:02041C00089541
:10041E000E94170286E00E9425020E941E02089585
:0E042E0060E070E084E090E00E9453010895C9
:0E043C0061E070E084E090E00E9453010895BA
:08044A008FB9779BFECF0895E6
:040452000C94000006
:00000001FF
