:100000000C942A000C949B010C949B010C949B0172
:100010000C949B010C949B010C949B010C949B01F0
:100020000C949B010C949B010C949B010C949B01E0
:100030000C949B010C949B010C949B010C949B01D0
:100040000C949B010C949B010C949B010C949B01C0
:100050000C949B0111241FBECFE5D8E0DEBFCDBFBD
:0C0060000E948B010C943400F894FFCF38
:10006C00CF930E949D0184FF3DC082B3887F82BBE9
:10007C00929A8FEC97E00197F1F700C000000E9474
:10008C009D0184FF0BC082B3876082BB8FEC97E02D
:10009C000197F1F700C00000C1E0F5C082B3887F82
:1000AC0082BB919A8FEC97E00197F1F700C00000AA
:1000BC000E949D0184FF0BC082B3876082BB8FECD2
:1000CC0097E00197F1F700C00000C2E0DCC082B3FA
:1000DC00876082BB8FEC97E00197F1F700C00000BE
:1000EC00C3E0D1C00E949D0185FF3DC082B3887FD3
:1000FC0082BB929A8FEC97E00197F1F700C0000059
:10010C000E949D0185FF0BC082B3876082BB8FEC80
:10011C0097E00197F1F700C00000C4E0B4C082B3CF
:10012C00887F82BB919A8FEC97E00197F1F700C022
:10013C0000000E949D0185FF0BC082B3876082BBCB
:10014C008FEC97E00197F1F700C00000C5E09BC071
:10015C0082B3876082BB8FEC97E00197F1F700C008
:10016C000000C6E090C00E949D01C82FC07486FF9D
:10017C003DC082B3887F82BB929A8FEC97E0019747
:10018C00F1F700C000000E949D0186FF0BC082B3F6
:10019C00876082BB8FEC97E00197F1F700C00000FD
:1001AC00C7E071C082B3887F82BB919A8FEC97E0D5
:1001BC000197F1F700C000000E949D0186FF0BC063
:1001CC0082B3876082BB8FEC97E00197F1F700C098
:1001DC000000C8E058C082B3876082BB8FEC97E008
:1001EC000197F1F700C00000C9E04DC00E949D01CD
:1001FC008823E4F582B3887F82BB929A8FEC97E0D8
:10020C000197F1F700C000000E949D0188235CF467
:10021C0082B3876082BB8FEC97E00197F1F700C047
:10022C000000CAE030C082B3887F82BB919A8FEC09
:10023C0097E00197F1F700C000000E949D01882310
:10024C0054F482B3876082BB8FEC97E00197F1F78F
:10025C0000C0000018C082B3876082BB8FEC97E0AF
:10026C000197F1F700C00000CBE00DC082B38760AE
:10027C0082BB9FEF29EF80E0915020408040E1F756
:0C028C0000C00000CFEF8C2FCF91089530
:100298006115710521F06130710579F0089541B358
:1002A80021E030E0B90102C0660F771F8A95E2F7B6
:1002B800CB018095842381BB089541B321E030E0D0
:1002C800B90102C0660F771F8A95E2F7CB01842B2C
:0402D80081BB089549
:1002DC006115710521F06130710531F0089594B309
:1002EC008095892384BB089594B3892B84BB08958E
:1002FC0061E070E084E890E00E946E0161E070E0E3
:0A030C0083E090E00E944C01089588
:100316000E947E018FEF8ABB0E9495010E943600E3
:040326008BBBFCCFC2
:0C032A0087E081BB82B3876082BB08952E
:040336000C94000023
:04033A0080B30895EF
:00000001FF
