:100000000C942A000C9445010C9445010C94450174
:100010000C9445010C9445010C9445010C94450148
:100020000C9445010C9445010C9445010C94450138
:100030000C9445010C9445010C9445010C94450128
:100040000C9445010C9445010C9445010C94450118
:100050000C94450111241FBECFE5D8E0DEBFCDBF13
:0C0060000E94BC000C943400F894FFCF08
:10006C006115710521F06130710579F0089547B380
:10007C0021E030E0B90102C0660F771F8A95E2F7E4
:10008C00CB018095842387BB089547B321E030E0F2
:10009C00B90102C0660F771F8A95E2F7CB01842B5A
:0400AC0087BB089571
:1000B0006115710521F06130710579F0089541B342
:1000C00021E030E0B90102C0660F771F8A95E2F7A0
:1000D000CB018095842381BB089541B321E030E0BA
:1000E000B90102C0660F771F8A95E2F7CB01842B16
:0400F00081BB089533
:1000F4006115710581F061307105D1F445B321E0DA
:1001040030E0B90102C0660F771F8A95E2F7CB0190
:10011400842B85BB089545B321E030E0B90102C0CA
:10012400660F771F8A95E2F7CB018095842385BB00
:0201340008952C
:100136006115710581F061307105D1F442B321E09A
:1001460030E0B90102C0660F771F8A95E2F7CB014E
:10015600842B82BB089542B321E030E0B90102C08E
:10016600660F771F8A95E2F7CB018095842382BBC1
:020176000895EA
:100178000E9438010E94150182E090E00E94DB0095
:100188002FEF83E294EF215080409040E1F700C0C8
:10019800000082E090E00E94F8002FEF83E294EFE5
:0E01A800215080409040E1F700C00000E5CFFC
:1001B6008330910599F08730910549F00297A1F4B3
:1001C60061E070E082E090E00E947A00089561E0CC
:1001D60070E087E090E00E947A00089561E070E0A8
:0A01E60083E090E00E949B00089562
:1001F0008330910599F08730910549F00297A1F479
:1002000060E070E082E090E00E947A00089560E093
:1002100070E087E090E00E947A00089560E070E06E
:0A02200083E090E00E949B00089527
:10022A0060E070E080E090E00E94360060E070E0FC
:10023A0086E090E00E94580060E070E082E090E082
:06024A000E945800089517
:100250006115710521F06130710531F0089594B395
:100260008095892384BB089594B3892B84BB08951A
:1002700061E070E084E890E00E94280161E070E0B5
:0A02800083E090E00E94580008950A
:04028A000C940000D0
:00000001FF
