:100000000C942A000C94F3000C94F3000C94F3006D
:100010000C94F3000C94F3000C94F3000C94F30094
:100020000C94F3000C94F3000C94F3000C94F30084
:100030000C94F3000C94F3000C94F3000C94F30074
:100040000C94F3000C94F3000C94F3000C94F30064
:100050000C94F30011241FBECFE5D8E0DEBFCDBF66
:0C0060000E94EC000C943400F894FFCFD8
:10006C006115710521F06130710579F0089544B383
:10007C0021E030E0B90102C0660F771F8A95E2F7E4
:10008C00CB018095842384BB089544B321E030E0F8
:10009C00B90102C0660F771F8A95E2F7CB01842B5A
:0400AC0084BB089574
:1000B0006115710521F06130710579F0089541B342
:1000C00021E030E0B90102C0660F771F8A95E2F7A0
:1000D000CB018095842381BB089541B321E030E0BA
:1000E000B90102C0660F771F8A95E2F7CB01842B16
:0400F00081BB089533
:1000F4006115710581F061307105D1F445B321E0DA
:1001040030E0B90102C0660F771F8A95E2F7CB0190
:10011400842B85BB089545B321E030E0B90102C0CA
:10012400660F771F8A95E2F7CB018095842385BB00
:0201340008952C
:100136006115710581F061307105D1F442B321E09A
:1001460030E0B90102C0660F771F8A95E2F7CB014E
:10015600842B82BB089542B321E030E0B90102C08E
:10016600660F771F8A95E2F7CB018095842382BBC1
:020176000895EA
:100178008330910599F08730910549F00297A1F4F1
:1001880061E070E082E090E00E947A00089561E00A
:1001980070E087E090E00E947A00089561E070E0E6
:0A01A80083E090E00E949B000895A0
:1001B20061E070E082E090E00E94360061E070E071
:1001C20087E090E00E94360061E070E083E090E01A
:0601D2000E945800089590
:0E01D8000E94D90082E090E00E94BC00FFCFA0
:0401E6000C94000075
:00000001FF
