:100000000C942A000C9441020C9441020C9441027D
:100010000C9441020C9441020C9441020C94410254
:100020000C9441020C9441020C9441020C94410244
:100030000C9441020C9441020C9441020C94410234
:100040000C9441020C9441020C9441020C94410224
:100050000C94410211241FBECFE5D8E0DEBFCDBF16
:10006000E4E5F0E040E017C0B591A5913591259108
:10007000059107FD0CC095918591EF01F92FE82FAF
:1000800005900D92A217B307D9F7FE0104C01D9287
:10009000A217B307E1F7E435F40731F70E949F0098
:0800A0000C945200F894FFCF0C
:1000A80094EA96BF06B607FEFDCF91B1987F9830C7
:1000B800B1F590EA93B994E896BF06B607FEFDCF6E
:1000C80091B1987F983169F583B984E886BF06B6FF
:1000D80007FEFDCF81B1887F883229F584EA86BF83
:1000E80006B607FEFDCF81B1887F8031F1F481EA41
:1000F80083B984E886BF06B607FEFDCF81B1887F45
:100108008034A9F484EC86BF06B607FEFDCF81B122
:10011800887F803571F483B194E996BF08958FEF95
:1001280008958FEF08958FEF08958FEF08958FEF5B
:06013800089587E0089520
:10013E000E94DF0062E170E087E090E00E943D02E5
:10014E0061E070E08FEF90E00E94FA012FEF33EC48
:10015E0049E0215030404040E1F700C0000069E026
:10016E0070E085E090E00E9413018FEF97EA21E6A0
:10017E00815090402040E1F700C0000085E090E003
:10018E000E9454003FEF49E628E1315040402040A4
:10019E00E1F700C0000099270E94C3013FEF43EC36
:1001AE0089E0315040408040E1F700C00000FFCFB1
:1001BE0061E070E080EF90E00E94FA0161E070E093
:1001CE0081E090E00E943E0161E070E082E090E00C
:1001DE000E943E0161E070E083E090E00E943E01EB
:1001EE002FEF89EF90E0215080409040E1F700C062
:1001FE00000060E070E082E090E00E94600182E02A
:10020E000E94810188E20E9481018CE00E9481019E
:08021E0081E00E9481010895B6
:1002260094EA96BF06B607FEFDCF91B1987F983047
:1002360009F590EA93B994E896BF06B607FEFDCF96
:1002460091B1987F9831B1F483B984E886BF06B638
:1002560007FEFDCF81B1887F883261F463B984E8F7
:1002660086BF06B607FEFDCF81B1887F883211F4BE
:0602760084E986BF089533
:10027C006115710521F06130710579F0089547B36E
:10028C0021E030E0B90102C0660F771F8A95E2F7D2
:10029C00CB018095842387BB089547B321E030E0E0
:1002AC00B90102C0660F771F8A95E2F7CB01842B48
:0402BC0087BB08955F
:1002C0006115710581F061307105D1F448B321E009
:1002D00030E0B90102C0660F771F8A95E2F7CB01C3
:1002E000842B88BB089548B321E030E0B90102C0F7
:1002F000660F771F8A95E2F7CB018095842388BB30
:0203000008955E
:10030200CF93C82FC1988BB38F709C2F907F892B6E
:100312008BBB0E9434028BB3282F2F7030E1C39F16
:10032200C0011124822B8BBB0E9434028FEF99EF04
:1003320020E0815090402040E1F700C00000CF91C2
:0203420008951C
:10034400CF93C82FC19A8BB38F709C2F907F892B2A
:100354008BBB0E9434028BB3282F2F7030E1C39FD4
:10036400C0011124822B8BBB0E9434028FEF99EFC2
:1003740020E0815090402040E1F700C00000CF9180
:020384000895DA
:10038600CF93DF93CDB7DEB72B970FB6F894DEBFCA
:100396000FBECDBF4AE0BE016F5F7F4F0E942902AC
:1003A600CE0101960E941A022B960FB6F894DEBF74
:0A03B6000FBECDBFDF91CF91089577
:1003C000BB27FB015527AA27880F991FAA1FA4172F
:1003D00010F0A41B83955051B9F7A05DAA3308F023
:1003E000A95DA193009779F7B111B1931192CB0157
:0403F0000C940A025D
:1003F4006115710521F06130710531F008959AB3EA
:10040400809589238ABB08959AB3892B8ABB089562
:10041400DC01FC01672F71917723E1F7329704C067
:100424007C916D9370836291AE17BF07C8F30895F2
:10043400CF93DF93EC018881882331F021960E94C9
:0E044400A20189918111FBCFDF91CF91089524
:10045200BB274A3031F4992322F4BDE2909581956D
:060462009F4F0C94E10124
:10046800C39A8FE19EE40197F1F700C00000C3989A
:020478000895E5
:08047A0082B982E180B9089506
:040482000C940000D6
:00000001FF
