:100000000C942A000C949A030C949A030C949A036F
:100010000C949A030C949A030C949A030C949A03EC
:100020000C949A030C949A030C949A030C94300346
:100030000C949A030C949A030C949A030C949A03CC
:100040000C94A0000C949A030C949A030C949A03B9
:100050000C949A0311241FBECFE5D8E0DEBFCDBFBC
:0C0060000E94A9010C943400F894FFCF1A
:10006C000FC00E94770338F00E947E0320F0952386
:10007C0011F00C9485030C94970311240C947103C8
:10008C000E94F50170F3959FC1F3950F50E0551F39
:10009C00629FF001729FBB27F00DB11D639FAA27D1
:1000AC00F00DB11DAA1F649F6627B00DA11D661F20
:1000BC00829F2227B00DA11D621F739FB00DA11D41
:1000CC00621F839FA00D611D221F749F3327A00DFB
:1000DC00611D231F849F600D211D822F762F6A2F97
:1000EC0011249F5750409AF0F1F088234AF0EE0FFC
:1000FC00FF1FBB1F661F771F881F91505040A9F729
:10010C009E3F510580F00C9485030C9471035F3F66
:10011C00E4F3983ED4F3869577956795B795F79564
:10012C00E7959F5FC1F7FE2B880F911D96958795DC
:04013C0097F9089592
:100140001F920F920FB60F9211242F933F934F934C
:100150005F936F937F938F939F93AF93BF93EF932F
:10016000FF930E94C70264B175B180E090E00E94E5
:10017000DE002AE137E64CE950E40E9493030E9436
:100180006903CB010E947A022FEF83E294EF2150A2
:1001900080409040E1F700C00000FF91EF91BF91D7
:1001A000AF919F918F917F916F915F914F913F910F
:0C01B0002F910F900FBE0F901F9018951C
:1001BC00E89409C097FB3EF49095809570956195F5
:1001CC007F4F8F4F9F4F9923A9F0F92F96E9BB27AB
:1001DC009395F695879577956795B795F111F8CF27
:1001EC00FAF4BB0F11F460FF1BC06F5F7F4F8F4F92
:1001FC009F4F16C0882311F096E911C0772321F088
:10020C009EE8872F762F05C0662371F096E8862F1F
:10021C0070E060E02AF09A95660F771F881FDAF776
:0A022C00880F9695879597F90895BD
:1002360061E070E080EF90E00E94EB0261E070E028
:1002460081E090E00E94D30161E070E082E090E0FE
:100256000E94D30161E070E083E090E00E94D30148
:100266002FEF89EF90E0215080409040E1F700C0E9
:10027600000060E070E082E090E00E94170282E0F9
:100286000E94380288E20E9438028CE00E943802FE
:0802960081E00E943802089586
:10029E000E94FD0188F09F5798F0B92F9927B7510A
:1002AE00B0F0E1F0660F771F881F991F1AF0BA950C
:1002BE00C9F714C0B13091F00E947003B1E00895F7
:1002CE000C947003672F782F8827B85F39F0B93FE9
:1002DE00CCF3869577956795B395D9F73EF49095BF
:0E02EE008095709561957F4F8F4F9F4F0895BB
:1002FC00813061F028F08230A1F08330D9F008957C
:10030C0083B7877B83BF0E948B0308958EEF8CBFCE
:10031C0083B78F7B83BF83B7886083BF0E948F03B3
:10032C0008958EEF8CBF83B7877F83BF83B78064BC
:10033C0083BF08958EEF8CBF83B7886083BF83B76C
:06034C00806483BF0895E8
:100352000E941B012FEF80E792E0215080409040E5
:10036200E1F700C0000081E40E94590247E061E029
:1003720081E00E94B1022FEF80E792E0215080409D
:100382009040E1F700C000008AEF82BF67E080E0A2
:100392000E94430378940E94C70282B790E00E94B1
:0403A2007A02F9CF13
:1003A6006115710521F06130710579F0089547B343
:1003B60021E030E0B90102C0660F771F8A95E2F7A7
:1003C600CB018095842387BB089547B321E030E0B5
:1003D600B90102C0660F771F8A95E2F7CB01842B1D
:0403E60087BB089534
:1003EA0057FD9058440F551F59F05F3F71F04795DC
:1003FA00880F97FB991F61F09F3F79F087950895C1
:10040A00121613061406551FF2CF4695F1DF08C0DF
:10041A00161617061806991FF1CF869571056105FC
:04042A000894089595
:10042E006115710581F061307105D1F448B321E099
:10043E0030E0B90102C0660F771F8A95E2F7CB0153
:10044E00842B88BB089548B321E030E0B90102C087
:10045E00660F771F8A95E2F7CB018095842388BBC0
:02046E000895EF
:10047000CF93C82FC1988BB38F709C2F907F892BFF
:100480008BBB0E943A038BB3282F2F7030E1C39FA0
:10049000C0011124822B8BBB0E943A038FEF99EF8E
:1004A00020E0815090402040E1F700C00000CF9153
:0204B0000895AD
:1004B200CF93C82FC19A8BB38F709C2F907F892BBB
:1004C2008BBB0E943A038BB3282F2F7030E1C39F5E
:1004D200C0011124822B8BBB0E943A038FEF99EF4C
:1004E20020E0815090402040E1F700C00000CF9111
:0204F20008956B
:1004F400CF93DF93CDB7DEB72B970FB6F894DEBF5B
:100504000FBECDBF4AE0BE016F5F7F4F0E9425033F
:10051400CE0101960E940B032B960FB6F894DEBF12
:0A0524000FBECDBFDF91CF91089507
:10052E00BB27FB015527AA27880F991FAA1FA417BF
:10053E0010F0A41B83955051B9F7A05DAA3308F0B3
:10054E00A95DA193009779F7B111B1931192CB01E7
:04055E000C94FB02FC
:10056200CF93DF93D62FC42F0E9454038D2F0E9466
:100572001A038C2F0E945B030E949E0384E00E9458
:0C0582004C030E949C03DF91CF91089570
:10058E00C1988BB38F708BBB0E943A038BB38F7065
:10059E0080618BBB0E943A038FE19EE40197F1F7D5
:0605AE0000C000000895EA
:1005B400092E0394000C11F4882352F0BB0F40F46D
:1005C400BF2B11F460FF04C06F5F7F4F8F4F9F4FAD
:0205D400089588
:1005D6006115710521F06130710531F008959AB306
:1005E600809589238ABB08959AB3892B8ABB08957F
:1005F600DC01FC01672F71917723E1F7329704C084
:100606007C916D9370836291AE17BF07C8F308950E
:10061600CF93DF93EC018881882331F021960E94E5
:0E062600590289918111FBCFDF91CF91089588
:1006340097B19F7397B927B130E4839FC001112408
:06064400822B87B9089526
:10064A00BB274A3031F4992322F4BDE29095819573
:06065A009F4F0C94980272
:100660001F920F920FB60F9211240F900FBE0F9092
:040670001F9018952A
:10067400C39A8FE19EE40197F1F700C00000C3988C
:020684000895D7
:10068600CF93C62F0E947E018C2F0E946203CF91CA
:020696000895C5
:10069800843019F480B7806880BF0E94A003089551
:0E06A80097B1907E97B997B1892B87B90895C5
:0E06B60096B1987F96B996B1892B86B90895B2
:0E06C40093B7987F93BF93B7892B83BF089598
:0E06D2000E944F016894B1110C9471030895B9
:0E06E000E894BB2766277727CB0197F908958A
:0E06EE0000240A941616170618060906089529
:0E06FC0000240A94121613061406050608952B
:0C070A0097F99F6780E870E060E00895B8
:0807160089B7816089BF0895D5
:08071E0089B7826089BF0895CC
:080726000E9436000C94DA0277
:06072E009FEF80EC08952E
:040734000C94000021
:04073800379A08954F
:04073C00339A08954F
:04074000359A089549
:00000001FF
