:100000000C942A000C94A0000C94A0000C94A00066
:100010000C94A0000C94A0000C94A0000C94A000E0
:100020000C94A0000C94A0000C94A0000C94A000D0
:100030000C94A0000C94A0000C94A0000C94A000C0
:100040000C94A0000C94A0000C94A0000C94A000B0
:100050000C94A00011241FBECFE5D8E0DEBFCDBFB9
:0C0060000E9458000C943400F894FFCF6C
:10006C00CF93CDEC8C9FC12D1124C695C695C6950A
:10007C002C2F220F922F990F990F920F891B0E94F0
:10008C0073008FE19EE40197F1F700C000008C2F04
:10009C000E9483008FE19EE40197F1F700C00000FD
:0400AC00CF91089553
:1000B0000E94930080E00E943600C1E0D0E000E0A2
:1000C00010E00BC0802F0E9436002196C436D10567
:1000D00021F40F5F1F4FC0E0D0E00436110591F707
:0600E00000E010E0EFCF8C
:1000E600CF93C82F0E949A008BB38F708BBB2BB314
:1000F60030E1C39FC0011124822B8BBBCF910895A1
:10010600CF93C82F0E949D008BB38F708BBB2BB3F0
:1001160030E1C39FC0011124822B8BBBCF91089580
:0E0126008AB3806F8ABB87B38E6087BB089553
:06013400C298C19A089573
:06013A00C198C29A08956D
:040140000C9400001B
:00000001FF
