:100000000C942A000C942E030C942E030C942E03B3
:100010000C942E030C942E030C942E030C942E039C
:100020000C942E030C942E030C942E030C942E038C
:100030000C942E030C942E030C942E030C942E037C
:100040000C94A0000C942E030C942E030C942E03FD
:100050000C942E0311241FBECFE5D8E0DEBFCDBF28
:0C0060000E945E020C943400F894FFCF64
:10006C000FC00E94130338F00E941A0320F095234E
:10007C0011F00C9421030C942B0311240C940D03FC
:10008C000E94A20170F3959FC1F3950F50E0551F8C
:10009C00629FF001729FBB27F00DB11D639FAA27D1
:1000AC00F00DB11DAA1F649F6627B00DA11D661F20
:1000BC00829F2227B00DA11D621F739FB00DA11D41
:1000CC00621F839FA00D611D221F749F3327A00DFB
:1000DC00611D231F849F600D211D822F762F6A2F97
:1000EC0011249F5750409AF0F1F088234AF0EE0FFC
:1000FC00FF1FBB1F661F771F881F91505040A9F729
:10010C009E3F510580F00C9421030C940D035F3F2E
:10011C00E4F3983ED4F3869577956795B795F79564
:10012C00E7959F5FC1F7FE2B880F911D96958795DC
:04013C0097F9089592
:100140001F920F920FB60F9211242F933F934F934C
:100150005F936F937F938F939F93AF93BF93EF932F
:10016000FF930E94850264B175B180E090E00E9427
:10017000E0002AE137E64CE950E40E9427030E94A0
:100180000503CB010E9427022FEF80E792E0215068
:1001900080409040E1F700C000000E943003FF91D2
:1001A000EF91BF91AF919F918F917F916F915F91EF
:1001B0004F913F912F910F900FBE0F901F90189568
:1001C000E89409C097FB3EF49095809570956195F1
:1001D0007F4F8F4F9F4F9923A9F0F92F96E9BB27A7
:1001E0009395F695879577956795B795F111F8CF23
:1001F000FAF4BB0F11F460FF1BC06F5F7F4F8F4F8E
:100200009F4F16C0882311F096E911C0772321F083
:100210009EE8872F762F05C0662371F096E8862F1B
:1002200070E060E02AF09A95660F771F881FDAF772
:0A023000880F9695879597F90895B9
:10023A0061E070E080EF90E00E94A90261E070E066
:10024A0081E090E00E94800161E070E082E090E04D
:10025A000E94800161E070E083E090E00E948001EA
:10026A002FEF89EF90E0215080409040E1F700C0E5
:10027A00000060E070E082E090E00E94C40182E049
:10028A000E94E50188E20E94E5018CE00E94E501F6
:08029A0081E00E94E5010895D6
:1002A2000E94AA0188F09F5798F0B92F9927B75159
:1002B200B0F0E1F0660F771F881F991F1AF0BA9508
:1002C200C9F714C0B13091F00E940C03B1E0089557
:1002D2000C940C03672F782F8827B85F39F0B93F49
:1002E200CCF3869577956795B395D9F73EF49095BB
:0E02F2008095709561957F4F8F4F9F4F0895B7
:100300006115710521F06130710579F0089547B3E9
:1003100021E030E0B90102C0660F771F8A95E2F74D
:10032000CB018095842387BB089547B321E030E05B
:10033000B90102C0660F771F8A95E2F7CB01842BC3
:0403400087BB0895DA
:1003440057FD9058440F551F59F05F3F71F0479582
:10035400880F97FB991F61F09F3F79F08795089567
:10036400121613061406551FF2CF4695F1DF08C086
:10037400161617061806991FF1CF869571056105A3
:04038400089408953C
:100388006115710581F061307105D1F448B321E040
:1003980030E0B90102C0660F771F8A95E2F7CB01FA
:1003A800842B88BB089548B321E030E0B90102C02E
:1003B800660F771F8A95E2F7CB018095842388BB67
:0203C800089596
:1003CA00CF93C82FC19885B38F709C2F907F892BAC
:1003DA0085BB0E94EE0285B3282F2F7030E1C39FA0
:1003EA00C0011124822B85BB0E94EE028FEF99EF88
:1003FA0020E0815090402040E1F700C00000CF91FA
:02040A00089553
:10040C00CF93C82FC19A85B38F709C2F907F892B67
:10041C0085BB0E94EE0285B3282F2F7030E1C39F5D
:10042C00C0011124822B85BB0E94EE028FEF99EF45
:10043C0020E0815090402040E1F700C00000CF91B7
:02044C00089511
:10044E00CF93DF93CDB7DEB72B970FB6F894DEBF01
:10045E000FBECDBF4AE0BE016F5F7F4F0E94E30229
:10046E00CE0101960E94C9022B960FB6F894DEBFFC
:0A047E000FBECDBFDF91CF910895AE
:10048800BB27FB015527AA27880F991FAA1FA41766
:1004980010F0A41B83955051B9F7A05DAA3308F05A
:1004A800A95DA193009779F7B111B1931192CB018E
:0404B8000C94B902E5
:1004BC000E941D0147E060E080E00E947202789487
:1004CC002FEF83EC99E0215080409040E1F700C081
:0804DC0000000E943003FFCF75
:1004E400CF93DF93D62FC42F0E94F7028D2F0E9443
:1004F400D8028C2F0E94FE020E9434030E94320311
:06050400DF91CF91089584
:10050A00C19885B38F7085BB0E94EE0285B38F7048
:10051A00806185BB0E94EE028FE19EE40197F1F7AC
:06052A0000C0000008956E
:10053000092E0394000C11F4882352F0BB0F40F4F1
:10054000BF2B11F460FF04C06F5F7F4F8F4F9F4F31
:0205500008950C
:100552006115710521F06130710531F0089594B390
:100562008095892384BB089594B3892B84BB089515
:10057200DC01FC01672F71917723E1F7329704C008
:100582007C916D9370836291AE17BF07C8F3089593
:10059200CF93DF93EC018881882331F021960E946A
:0E05A200060289918111FBCFDF91CF91089560
:1005B00097B19F7397B927B130E4839FC00111248D
:0605C000822B87B90895AB
:1005C600BB274A3031F4992322F4BDE290958195F8
:0605D6009F4F0C9445024A
:1005DC00C39A8FE19EE40197F1F700C00000C39825
:0205EC00089570
:0E05EE0097B1987F97B997B1892B87B9089577
:0E05FC0096B1987F96B996B1892B86B908956D
:0E060A000E9451016894B1110C940D030895E3
:0E061800E894BB2766277727CB0197F9089552
:0E06260000240A9416161706180609060895F1
:0E06340000240A9412161306140605060895F3
:0C06420097F99F6780E870E060E0089581
:08064E000E9436000C94980292
:060656009FEF80EC089507
:04065C000C940000FA
:04066000369A089529
:04066400379A089524
:04066800339A089524
:00000001FF
