:100000000C942A000C94A4010C94A4010C94A40157
:100010000C94A4010C94A4010C94A4010C94A401CC
:100020000C94A4010C94A4010C94A4010C94A401BC
:100030000C94A4010C94A4010C94A4010C94A401AC
:100040000C94A4010C94A4010C94A4010C94A4019C
:100050000C94A40111241FBECFE5D8E0DEBFCDBFB4
:0C0060000E946A000C943400F894FFCF5A
:10006C0061E070E080EF90E00E945F0161E070E081
:10007C0081E090E00E94C60061E070E082E090E0D8
:10008C000E94C60061E070E083E090E00E94C60030
:10009C002FEF89EF90E0215080409040E1F700C0B5
:1000AC00000060E070E082E090E00E940A0182E0D3
:1000BC000E942B0188E20E942B018CE00E942B01F4
:0800CC0081E00E942B01089560
:1000D4000E944C0183E090E00E946F010E94950110
:1000E40065E083E00E9485010E9436000CC02FEF7A
:1000F40089EF90E0215080409040E1F700C000007B
:1001040083B5865F83BD83B58A3F88F383B588232F
:10011400D1F32FEF89EF90E0215080409040E1F738
:1001240000C0000083B58A5083BD83B58111F1CF2F
:02013400EACF10
:10013600813061F028F08230A1F08330D9F0089543
:1001460085B5877B85BD0E949C0108958AE083BDA5
:1001560085B58F7B85BD85B5886085BD0E94A0016C
:1001660008958AE083BD85B5877F85BD85B58064A2
:1001760085BD08958AE083BD85B5886085BD85B552
:06018600806485BD0895B0
:10018C006115710521F06130710579F0089547B35F
:10019C0021E030E0B90102C0660F771F8A95E2F7C3
:1001AC00CB018095842387BB089547B321E030E0D1
:1001BC00B90102C0660F771F8A95E2F7CB01842B39
:0401CC0087BB089550
:1001D0006115710521F06130710579F0089541B321
:1001E00021E030E0B90102C0660F771F8A95E2F77F
:1001F000CB018095842381BB089541B321E030E099
:10020000B90102C0660F771F8A95E2F7CB01842BF4
:0402100081BB089511
:100214006115710581F061307105D1F448B321E0B5
:1002240030E0B90102C0660F771F8A95E2F7CB016F
:10023400842B88BB089548B321E030E0B90102C0A3
:10024400660F771F8A95E2F7CB018095842388BBDC
:0202540008950B
:10025600CF93C82FC1988BB38F709C2F907F892B1B
:100266008BBB0E947C018BB3282F2F7030E1C39F7C
:10027600C0011124822B8BBB0E947C018FEF99EF6A
:1002860020E0815090402040E1F700C00000CF916F
:020296000895C9
:1002980060E070E080E090E00E94C60060E070E0FE
:1002A80086E090E00E94E80060E070E082E090E084
:0602B8000E94E800089519
:1002BE006115710521F06130710531F008959AB321
:1002CE00809589238ABB08959AB3892B8ABB08959A
:1002DE0025B52F7C25BD25B582959295907F9827C3
:0A02EE00807F9827822B85BD0895BC
:1002F800C39A8FE19EE40197F1F700C00000C3980C
:02030800089556
:10030A00CF93C62F0E949B008C2F0E948E01CF9103
:02031A00089544
:0E031C0095B5987F95BD95B5892B85BD089543
:0E032A0061E070E087E090E00E94E800089536
:0803380089B7806489BF0895B4
:0803400089B7806889BF0895A8
:040348000C94000011
:00000001FF
