:100000000C942E000C94B8000C94B8000C94B8001A
:100010000C94B8000C94B8000C94B8000C94B80080
:100020000C94B8000C94B8000C94B8000C94B80070
:100030000C94B8000C94B8000C94B8000C94B80060
:100040000C94B8000C94B8000C94B8000C94B80050
:100050000C94B800006000650001740011241FBEFC
:10006000CFE5D8E0DEBFCDBFE4E5F0E040E017C06B
:10007000B591A59135912591059107FD0CC09591FC
:100080008591EF01F92FE82F05900D92A217B30784
:10009000D9F7FE0104C01D92A217B307E1F7EB35B3
:1000A000F40731F70E9485000C945600F894FFCFB6
:1000B00094EA96BF06B607FEFDCF91B1987F9830BF
:1000C00019F583B984E886BF06B607FEFDCF81B176
:1000D000887F883119F4411104C014C08032A1F422
:1000E000FACFFB01640F711D94E8819183B996BF2B
:1000F00006B607FEFDCF81B1887F883229F46E17DE
:0A0100007F0799F784E986BF089590
:10010A0087E082B982E180B961E070E08FEF90E028
:10011A000E94A8002FEF83EC99E021508040904084
:10012A00E1F700C0000045E060E670E08AE00E9466
:10013A0058002FEF83EC99E0215080409040E1F77E
:06014A0000C00000F6CF2A
:100150006115710521F06130710531F008959AB390
:10016000809589238ABB08959AB3892B8ABB089509
:040170000C940000EB
:05017400020304050672
:00000001FF
