:100000000C942A000C9476000C9499000C9499009E
:100010000C9499000C9499000C9499000C949900FC
:100020000C9499000C9499000C9499000C949900EC
:100030000C9499000C9499000C9499000C949900DC
:100040000C9499000C9499000C9499000C949900CC
:100050000C94990011241FBECFE5D8E0DEBFCDBFC0
:0C0060000E9488000C943400F894FFCF3C
:10006C006115710521F06130710579F0089541B386
:10007C0021E030E0B90102C0660F771F8A95E2F7E4
:10008C00CB018095842381BB089541B321E030E0FE
:10009C00B90102C0660F771F8A95E2F7CB01842B5A
:0400AC0081BB089577
:1000B000813051F028F0823071F0833099F008954A
:1000C00085B78C7F85BF089585B7816085BF85B76B
:1000D0008D7F85BF089585B7826085BF85B78E7F88
:0C00E00085BF089585B7836085BF089533
:1000EC001F920F920FB60F9211248F939F9392B37E
:1000FC0081E0892782BB9F918F910F900FBE0F904B
:04010C001F90189593
:1001100061E070E080E090E00E94360081E00E94A3
:0601200093007894FFCF6C
:0C0126000E9458008BB780648BBF0895C6
:040132000C94000029
:00000001FF
