:100000000C942E000C94A5000C94A5000C94A50053
:100010000C94A5000C94A5000C94A5000C94A500CC
:100020000C94A5000C94A5000C94A5000C94A500BC
:100030000C94A5000C94A5000C94A5000C94A500AC
:100040000C94A5000C94A5000C94A5000C94A5009C
:100050000C94A5000060006100014E0011241FBE39
:10006000CFE5D8E0DEBFCDBFE4E5F0E040E017C06B
:10007000B591A59135912591059107FD0CC09591FC
:100080008591EF01F92FE82F05900D92A217B30784
:10009000D9F7FE0104C01D92A217B307E1F7EB35B3
:1000A000F40731F70E9479000C945600F894FFCFC2
:1000B000CF93C62F4DB19C0122953295307F3227C8
:1000C000207F3227242B2DB9892B39F061E070E095
:1000D00080EB90E00E94910006C061E070E080E457
:1000E00090E00E9491008DB1C82BCDB96E9ACF914E
:0200F000089571
:1000F20063E070E081E090E00E945800809160002F
:1001020091E0980F909360000E94A1002FEF83ED81
:1001120090E3215080409040E1F700C00000EECF14
:100122006115710521F06130710531F0089597B3C1
:100132008095892387BB089597B3892B87BB089540
:080142008FB9779BFECF0895F1
:04014A000C94000011
:01014E0001AF
:00000001FF
