:100000000C942A000C941F020C941F020C941F02E3
:100010000C941F020C941F020C941F020C941F02DC
:100020000C941F020C941F020C941F020C941F02CC
:100030000C941F020C941F020C941F020C941F02BC
:100040000C941F020C941F020C941F020C941F02AC
:100050000C941F0211241FBECFE5D8E0DEBFCDBF38
:10006000E4E5F0E040E017C0B591A5913591259108
:10007000059107FD0CC095918591EF01F92FE82FAF
:1000800005900D92A217B307D9F7FE0104C01D9287
:10009000A217B307E1F7E435F40731F70E944B01EB
:0800A0000C945200F894FFCF0C
:1000A8008BB387608BBB0E942102807F09F4AEC0AE
:1000B8008BB3887F8BBBD89A8FE19EE40197F1F7C9
:1000C80000C000000E94210284FF08C08FEC97E066
:1000D8000197F1F700C0000083E308950E94210210
:1000E80085FF08C08FEC97E00197F1F700C000008A
:1000F80086E308950E94210286FF08C08FEC97E0EE
:100108000197F1F700C0000089E308950E942102D9
:10011800882344F48FEC97E00197F1F700C00000C2
:1001280083E208958BB3887F8BBBD99A8FE19EE4D5
:100138000197F1F700C000000E94210284FF08C067
:100148008FEC97E00197F1F700C0000082E3089573
:100158000E94210285FF08C08FEC97E00197F1F714
:1001680000C0000085E308950E94210286FF08C0B0
:100178008FEC97E00197F1F700C0000088E308953D
:100188000E942102882344F48FEC97E00197F1F74D
:1001980000C0000080E308958BB3887F8BBBDA9A98
:1001A8008FE19EE40197F1F700C000000E94210250
:1001B80084FF08C08FEC97E00197F1F700C00000BA
:1001C80081E308950E94210285FF08C08FEC97E023
:1001D8000197F1F700C0000084E308950E9421020E
:1001E80086FF08C08FEC97E00197F1F700C0000088
:1001F80087E308950E942102882344F48FEC97E056
:100208000197F1F700C000008AE208959FEF29EFF7
:1002180080E0915020408040E1F700C000008BB39F
:0602280087608BBB40CF94
:10022E0061E070E080EF90E00E94F70161E070E025
:10023E0081E090E00E94720161E070E082E090E067
:10024E000E94720161E070E083E090E00E94720112
:10025E002FEF89EF90E0215080409040E1F700C0F1
:10026E00000060E070E082E090E00E94940182E085
:10027E000E94B50188E20E94B5018CE00E94B50192
:08028E0081E00E94B501089512
:100296000E9419028FE19EE40197F1F700C0000069
:1002A6000E9417019FEF20E782E091502040804096
:1002B600E1F700C0000064E070E080E090E00E949A
:1002C60010020E9454000E94D6019FEF29E688E1A1
:0E02D600915020408040E1F700C00000F2CFC0
:1002E4006115710521F06130710579F0089547B306
:1002F40021E030E0B90102C0660F771F8A95E2F76A
:10030400CB018095842387BB089547B321E030E077
:10031400B90102C0660F771F8A95E2F7CB01842BDF
:0403240087BB0895F6
:100328006115710581F061307105D1F448B321E0A0
:1003380030E0B90102C0660F771F8A95E2F7CB015A
:10034800842B88BB089548B321E030E0B90102C08E
:10035800660F771F8A95E2F7CB018095842388BBC7
:020368000895F6
:10036A00CF93C82FC19885B38F709C2F907F892B0C
:10037A0085BB0E94070285B3282F2F7030E1C39FE7
:10038A00C0011124822B85BB0E9407028FEF99EFCF
:10039A0020E0815090402040E1F700C00000CF915A
:0203AA000895B4
:1003AC00CF93C82FC19A85B38F709C2F907F892BC8
:1003BC0085BB0E94070285B3282F2F7030E1C39FA5
:1003CC00C0011124822B85BB0E9407028FEF99EF8D
:1003DC0020E0815090402040E1F700C00000CF9118
:0203EC00089572
:1003EE006115710521F06130710531F0089594B3F6
:1003FE008095892384BB089594B3892B84BB08957B
:10040E00C39A8FE19EE40197F1F700C00000C398F4
:02041E0008953F
:1004200020E4829FC00111246068862B0E94B501E0
:0204300008952D
:0C04320087E08ABB8BB387608BBB08950A
:04043E000C9400001A
:0404420089B30895DD
:00000001FF
