:100000000C942D000C9420040C9420040C942004D7
:100010000C9420040C9420040C9420040C942004D0
:100020000C9420040C9420040C945A010C94200489
:100030000C9420040C9420040C9420040C942004B0
:100040000C9420040C9420040C9420040C942004A0
:100050000C94200400600064800011241FBECFE5D2
:10006000D8E0DEBFCDBFE4E5F0E040E017C0B591D9
:10007000A59135912591059107FD0CC0959185912C
:10008000EF01F92FE82F05900D92A217B307D9F7CA
:10009000FE0104C01D92A217B307E1F7E935F4078A
:0E00A00031F70E9457000C945500F894FFCFE2
:1000AE0060E070E087E090E00E94760260E070E031
:1000BE0086E090E00E9476020E94E8010E94E4032E
:1000CE0082E090E00E94A70365E083E00E94CB03EC
:1000DE002FEF80E792E0215080409040E1F700C082
:1000EE0000000E9454036CB724E6629FB0011124F5
:1000FE00072E000C880B990B0E94AD0120E030E01A
:10010E004FE753E40E9419040E94EB03CB010E94B7
:10011E001D0385E20E94FC02C4E686E00E941504DF
:10012E00882331F18CB78F5F8CBF8FEF93EC29E072
:10013E00815090402040E1F700C000000E9454031F
:10014E006CB7C69FB0011124072E000C880B990BBB
:10015E000E94AD0120E030E04FE753E40E94190405
:10016E000E94EB03CB010E941D0385E20E94FC025C
:10017E0087E00E941504882381F28CB781508CBFD2
:10018E008FEF93EC29E0815090402040E1F700C0C2
:10019E0000000E9454036CB7C69FB0011124072EB5
:1001AE00000C880B990B0E94AD0120E030E04FE768
:1001BE0053E40E9419040E94EB03CB010E941D031D
:0801CE0085E20E94FC02A9CFAA
:1001D60010C00E94F90358F00E94F20340F029F47F
:1001E6005F3F29F00C94070451110C9401040C9400
:1001F6001D040E94980268F39923B1F3552391F3E5
:10020600951B550BBB27AA2762177307840738F07F
:100216009F5F5F4F220F331F441FAA1FA9F335D0DC
:100226000E2E3AF0E0E832D091505040E695001C90
:10023600CAF72BD0FE2F29D0660F771F881FBB1F4A
:10024600261737074807AB07B0E809F0BB0B802D28
:10025600BF01FF2793585F4F3AF09E3F510578F054
:100266000C9407040C9401045F3FE4F3983ED4F326
:10027600869577956795B795F7959F5FC9F7880F28
:10028600911D9695879597F90895E1E0660F771F7A
:10029600881FBB1F621773078407BA0720F0621B0B
:0E02A600730B840BBA0BEE1F88F7E0950895DA
:1002B4001F920F920FB60F9211242F933F934F93D7
:1002C4005F936F937F938F939F93AF93BF93EF93BA
:1002D400FF93809162009091630001969093630074
:1002E400809362008D37910519F58091600090919B
:1002F4006100019690936100809360000E94540312
:1003040080916000909161000E941D0380916000C3
:1003140090916100CC9741F480E090E00E941D032D
:1003240010926100109260001092630010926200BB
:10033400FF91EF91BF91AF919F918F917F916F91B9
:100344005F914F913F912F910F900FBE0F901F908F
:020354001895FA
:10035600E89409C097FB3EF4909580957095619559
:100366007F4F8F4F9F4F9923A9F0F92F96E9BB270F
:100376009395F695879577956795B795F111F8CF8B
:10038600FAF4BB0F11F460FF1BC06F5F7F4F8F4FF6
:100396009F4F16C0882311F096E911C0772321F0EC
:1003A6009EE8872F762F05C0662371F096E8862F84
:1003B60070E060E02AF09A95660F771F881FDAF7DB
:0A03C600880F9695879597F9089522
:1003D00061E070E080EF90E00E94780361E070E0FF
:1003E00080E090E00E94760261E070E081E090E0C1
:1003F0000E94760261E070E082E090E00E94760266
:100400002FEF89EF90E0215080409040E1F700C04D
:10041000000060E070E081E090E00E94BA0282E0BB
:100420000E94DB0288E20E94DB028CE00E94DB0279
:0804300081E00E94DB02089547
:100438000E94A00288F09F5798F0B92F9927B751CA
:10044800B0F0E1F0660F771F881F991F1AF0BA9570
:10045800C9F714C0B13091F00E940004B1E00895CA
:100468000C940004672F782F8827B85F39F0B93FBC
:10047800CCF3869577956795B395D9F73EF4909523
:0E0488008095709561957F4F8F4F9F4F08951F
:10049600813061F028F08230A1F08330D9F00895E0
:1004A60083B7877B83BF0E940D0408958EEF8CBFB0
:1004B60083B78F7B83BF83B7886083BF0E94110495
:1004C60008958EEF8CBF83B7877F83BF83B7806421
:1004D60083BF08958EEF8CBF83B7886083BF83B7D1
:0604E600806483BF08954D
:1004EC006115710521F06130710579F0089547B3FC
:1004FC0021E030E0B90102C0660F771F8A95E2F760
:10050C00CB018095842387BB089547B321E030E06D
:10051C00B90102C0660F771F8A95E2F7CB01842BD5
:04052C0087BB0895EC
:1005300057FD9058440F551F59F05F3F71F0479594
:10054000880F97FB991F61F09F3F79F08795089579
:10055000121613061406551FF2CF4695F1DF08C098
:10056000161617061806991FF1CF869571056105B5
:04057000089408954E
:100574006115710581F061307105D1F448B321E052
:1005840030E0B90102C0660F771F8A95E2F7CB010C
:10059400842B88BB089548B321E030E0B90102C040
:1005A400660F771F8A95E2F7CB018095842388BB79
:0205B4000895A8
:1005B600CF93C82FC09885B38F709C2F907F892BBF
:1005C60085BB0E94D40385B3282F2F7030E1C39FCB
:1005D600C0011124822B85BB0E94D4038FEF99EFB3
:1005E60020E0815090402040E1F700C00000CF910C
:0205F600089566
:1005F800CF93C82FC09A85B38F709C2F907F892B7B
:1006080085BB0E94D40385B3282F2F7030E1C39F88
:10061800C0011124822B85BB0E94D4038FEF99EF70
:1006280020E0815090402040E1F700C00000CF91C9
:02063800089523
:10063A00CF93DF93CDB7DEB72B970FB6F894DEBF13
:10064A000FBECDBF4AE0BE016F5F7F4F0E94C0035D
:10065A00CE0101960E9498032B960FB6F894DEBF3E
:0A066A000FBECDBFDF91CF910895C0
:10067400BB27FB015527AA27880F991FAA1FA41778
:1006840010F0A41B83955051B9F7A05DAA3308F06C
:10069400A95DA193009779F7B111B1931192CB01A0
:0406A4000C94880327
:1006A800C09885B38F7085BB0E94D40385B38F70C3
:1006B800806185BB0E94D4038FE19EE40197F1F726
:0606C80000C000000895CF
:1006CE00092E0394000C11F4882352F0BB0F40F452
:1006DE00BF2B11F460FF04C06F5F7F4F8F4F9F4F92
:0206EE0008956D
:1006F0006115710521F06130710531F0089594B3F1
:100700008095892384BB089594B3892B84BB089575
:10071000DC01FC01672F71917723E1F7329704C068
:100720007C916D9370836291AE17BF07C8F30895F3
:10073000CF93DF93EC018881882331F021960E94CA
:0E074000FC0289918111FBCFDF91CF910895CA
:10074E0023B72F7C23BF23B782959295907F98274E
:0A075E00807F9827822B83BF089547
:1007680046B321E030E0B90102C0660F771F8A95D1
:08077800E2F7CB018423089590
:10078000BB274A3031F4992322F4BDE2909581953C
:060790009F4F0C943B0397
:10079600CF93C62F0E944B028C2F0E94DD03CF9170
:0207A6000895B4
:1007A800C29A8FE19EE40197F1F700C00000C29859
:0207B8000895A2
:0E07BA0093B7987F93BF93B7892B83BF0895A1
:0E07C80061E070E083E090E00E947602089508
:0E07D6000E941C026894B1110C940104089555
:0E07E40000240A941616170618060906089532
:0E07F20000240A941216130614060506089534
:0E080000E894BB2766277727CB0197F9089568
:0C080E0097F99F6780E870E060E00895B3
:08081A0089B7816089BF0895D0
:0808220089B7826089BF0895C7
:08082A0090E00E94B403089560
:080832000E94EB000C94670327
:06083A009FEF80EC089521
:040840000C94000014
:00000001FF
