:100000000C942D000C9425020C9425020C942502CE
:100010000C9425020C9425020C9425020C942502C4
:100020000C9425020C9425020C9425020C942502B4
:100030000C9425020C9425020C9425020C942502A4
:100040000C9425020C9425020C9425020C94250294
:100050000C94250200600080800011241FBECFE5B3
:10006000D8E0DEBFCDBFE4E5F0E040E017C0B591D9
:10007000A59135912591059107FD0CC0959185912C
:10008000EF01F92FE82F05900D92A217B307D9F7CA
:10009000FE0104C01D92A217B307E1F7E935F4078A
:0E00A00031F70E9457000C945500F894FFCFE2
:1000AE000E94B10061E070E08FEF90E00E94D301FA
:1000BE0063E070E081E090E00E94B2012FEF80E7F4
:1000CE0092E0215080409040E1F700C000000E9475
:1000DE001A022FEF81EE94E0215080409040E1F71C
:1000EE0000C00000C0E7D0E00F2EF1E4FF2EF02D8F
:1000FE0002E413E4F88209831A832FEF83EC99E06C
:10010E00215080409040E1F700C000000E940B0299
:10011E002FEF83EC99E0215080409040E1F700C032
:10012E00000043E0BE0187E00E940A012FEF80E746
:10013E0092E0215080409040E1F700C0000043E083
:10014E0060E670E087E00E94E50080E690E00E94A5
:04015E00F301D0CF0A
:1001620061E070E080EF90E00E94D30161E070E016
:1001720081E090E00E942D0161E070E082E090E079
:100182000E942D0161E070E083E090E00E942D0169
:100192002FEF89EF90E0215080409040E1F700C0BE
:1001A200000060E070E082E090E00E944F0182E097
:1001B2000E94700188E20E9470018CE00E9470012E
:0801C20081E00E947001089524
:1001CA00FF920F931F93CF93DF93C82F8B01F42EC7
:1001DA000E94130283E00E9421028C2F0E942102B6
:1001EA00FF2059F0E8010F0D111D80E00E94210245
:1001FA008FB18993C017D107C1F70E941A02DF9104
:0A020A00CF911F910F91FF9008950E
:10021400FF920F931F93CF93DF93C82F8B01F42E7C
:100224000E94130282E00E9421028C2F0E9421026C
:10023400FF2049F0E8010F0D111D89910E94210250
:10024400C017D107D1F70E941A02DF91CF911F91F5
:060254000F91FF900895D8
:10025A006115710521F06130710579F0089547B390
:10026A0021E030E0B90102C0660F771F8A95E2F7F4
:10027A00CB018095842387BB089547B321E030E002
:10028A00B90102C0660F771F8A95E2F7CB01842B6A
:04029A0087BB089581
:10029E006115710581F061307105D1F448B321E02B
:1002AE0030E0B90102C0660F771F8A95E2F7CB01E5
:1002BE00842B88BB089548B321E030E0B90102C019
:1002CE00660F771F8A95E2F7CB018095842388BB52
:0202DE00089581
:1002E000CF93C82FC1988BB38F709C2F907F892B91
:1002F0008BBB0E9402028BB3282F2F7030E1C39F6B
:10030000C0011124822B8BBB0E9402028FEF99EF58
:1003100020E0815090402040E1F700C00000CF91E4
:0203200008953E
:10032200CF93C82FC19A8BB38F709C2F907F892B4C
:100332008BBB0E9402028BB3282F2F7030E1C39F28
:10034200C0011124822B8BBB0E9402028FEF99EF16
:1003520020E0815090402040E1F700C00000CF91A2
:020362000895FC
:10036400CF93C62F4DB19C0122953295307F322711
:10037400207F3227242B2DB9892B51F061E070E0C6
:1003840080EB90E00E94E3018DB1C82BCDB906C08B
:1003940061E070E080E490E00E94E3016E9ACF9106
:0203A4000895BA
:1003A6006115710521F06130710531F008959AB338
:1003B600809589238ABB08959AB3892B8ABB0895B1
:1003C6006115710521F06130710531F0089597B31B
:1003D6008095892387BB089597B3892B87BB08959A
:1003E600CF93DF93EC018881882331F021960E9418
:0E03F600910189918111FBCFDF91CF91089584
:10040400C39A8FE19EE40197F1F700C00000C398FE
:02041400089549
:100416000E94130286E00E9421020E941A02089599
:0E04260060E070E084E090E00E944F010895D5
:0E04340061E070E084E090E00E944F010895C6
:080442008FB9779BFECF0895EE
:04044A000C9400000E
:00000001FF
