:100000000C942A000C94DB000C94DB000C94DB00B5
:100010000C94DB000C94DB000C94DB000C94DB00F4
:100020000C94DB000C94DB000C94DB000C94DB00E4
:100030000C94DB000C94DB000C94DB000C94DB00D4
:100040000C94DB000C94DB000C94DB000C94DB00C4
:100050000C94DB0011241FBECFE5D8E0DEBFCDBF7E
:0C0060000E94D4000C943400F894FFCFF0
:10006C006115710521F06130710579F0089541B386
:10007C0021E030E0B90102C0660F771F8A95E2F7E4
:10008C00CB018095842381BB089541B321E030E0FE
:10009C00B90102C0660F771F8A95E2F7CB01842B5A
:0400AC0081BB089577
:1000B0006115710581F061307105D1F445B321E01E
:1000C00030E0B90102C0660F771F8A95E2F7CB01D5
:1000D000842B85BB089545B321E030E0B90102C00F
:1000E000660F771F8A95E2F7CB018095842385BB45
:0200F000089571
:1000F2006115710581F061307105D1F442B321E0DF
:1001020030E0B90102C0660F771F8A95E2F7CB0192
:10011200842B82BB089542B321E030E0B90102C0D2
:10012200660F771F8A95E2F7CB018095842382BB05
:0201320008952E
:100134008330910599F08730910549F00297A1F435
:1001440061E070E082E090E00E945800089561E070
:1001540070E087E090E00E945800089561E070E04C
:0A01640083E090E00E947900089506
:10016E006115710521F06130710531F0089594B378
:10017E008095892384BB089594B3892B84BB0895FD
:10018E0061E070E084E890E00E94B70061E070E00A
:0A019E0083E090E00E94360008950F
:0E01A8000E94C70082E090E00E949A00FFCF04
:0401B6000C940000A5
:00000001FF
