:100000000C942D000C9424020C9424020C942402D1
:100010000C9424020C9424020C9424020C942402C8
:100020000C9424020C9424020C9457000C94240287
:100030000C9424020C9424020C9424020C942402A8
:100040000C9424020C9424020C9424020C94240298
:100050000C94240200600064800011241FBECFE5D0
:10006000D8E0DEBFCDBFE4E5F0E040E017C0B591D9
:10007000A59135912591059107FD0CC0959185912C
:10008000EF01F92FE82F05900D92A217B307D9F7CA
:10009000FE0104C01D92A217B307E1F7E935F4078A
:0E00A00031F70E940D020C945500F894FFCF2A
:1000AE001F920F920FB60F9211242F933F934F93DF
:1000BE005F936F937F938F939F93AF93BF93EF93C2
:1000CE00FF9380916200909163000196909363007C
:1000DE00809362008D37910519F5809160009091A3
:1000EE006100019690936100809360000E94AE01C2
:1000FE0080916000909161000E946101809160008A
:10010E0090916100CC9741F480E090E00E946101F3
:10011E0010926100109260001092630010926200C3
:10012E00FF91EF91BF91AF919F918F917F916F91C1
:10013E005F914F913F912F910F900FBE0F901F9097
:02014E00189502
:1001500061E070E080EF90E00E94C10161E070E03A
:1001600081E090E00E94DC0061E070E082E090E0DD
:100170000E94DC0061E070E083E090E00E94DC001F
:100180002FEF89EF90E0215080409040E1F700C0D0
:10019000000060E070E082E090E00E94FE0082E0FB
:1001A0000E941F0188E20E941F018CE00E941F0133
:0801B00081E00E941F01089587
:1001B8006115710521F06130710579F0089547B333
:1001C80021E030E0B90102C0660F771F8A95E2F797
:1001D800CB018095842387BB089547B321E030E0A5
:1001E800B90102C0660F771F8A95E2F7CB01842B0D
:0401F80087BB089524
:1001FC006115710581F061307105D1F448B321E0CE
:10020C0030E0B90102C0660F771F8A95E2F7CB0187
:10021C00842B88BB089548B321E030E0B90102C0BB
:10022C00660F771F8A95E2F7CB018095842388BBF4
:02023C00089523
:10023E00CF93C82FC19885B38F709C2F907F892B39
:10024E0085BB0E94040285B3282F2F7030E1C39F17
:10025E00C0011124822B85BB0E9404028FEF99EFFF
:10026E0020E0815090402040E1F700C00000CF9187
:02027E000895E1
:10028000CF93C82FC19A85B38F709C2F907F892BF5
:1002900085BB0E94040285B3282F2F7030E1C39FD5
:1002A000C0011124822B85BB0E9404028FEF99EFBD
:1002B00020E0815090402040E1F700C00000CF9145
:0202C00008959F
:1002C200CF93DF93CDB7DEB72B970FB6F894DEBF8F
:1002D2000FBECDBF4AE0BE016F5F7F4F0E94F001AB
:1002E200CE0101960E94E1012B960FB6F894DEBF73
:0A02F2000FBECDBFDF91CF9108953C
:1002FC00BB27FB015527AA27880F991FAA1FA417F4
:10030C0010F0A41B83955051B9F7A05DAA3308F0E7
:10031C00A95DA193009779F7B111B1931192CB011B
:04032C000C94D1015B
:10033000882319F0813039F0089583B7877B83BF14
:100340000E941C0208958CE78CBF83B78F7B83BF0C
:0C03500083B7886083BF0E9420020895DC
:10035C00C19885B38F7085BB0E94040285B38F70E2
:10036C00806185BB0E9404028FE19EE40197F1F746
:06037C0000C0000008951E
:100382006115710521F06130710531F0089594B362
:100392008095892384BB089594B3892B84BB0895E7
:1003A200DC01FC01672F71917723E1F7329704C0DA
:1003B2007C916D9370836291AE17BF07C8F3089565
:1003C200CF93DF93EC018881882331F021960E943C
:0E03D200400189918111FBCFDF91CF910895F9
:1003E000BB274A3031F4992322F4BDE290958195E0
:0603F0009F4F0C947F01F9
:1003F600CF93C62F0E9498018C2F0E941502CF9191
:02040600089557
:10040800C39A8FE19EE40197F1F700C00000C398FA
:02041800089545
:10041A000E94A80065E081E00E94FB017894FFCF6A
:0E042A0093B7987F93BF93B7892B83BF089534
:0804380089B7816089BF0895B6
:0804400089B7826089BF0895AD
:040448000C94000010
:00000001FF
