:100000000C942A000C943A020C943A020C943A0292
:100010000C943A020C943A020C943A020C943A0270
:100020000C943A020C943A020C943A020C943A0260
:100030000C943A020C943A020C943A020C943A0250
:100040000C943A020C943A020C943A020C943A0240
:100050000C943A0211241FBECFE5D8E0DEBFCDBF1D
:10006000E4E5F0E040E017C0B591A5913591259108
:10007000059107FD0CC095918591EF01F92FE82FAF
:1000800005900D92A217B307D9F7FE0104C01D9287
:10009000A217B307E1F7E435F40731F70E949F0098
:0800A0000C945200F894FFCF0C
:1000A80094EA96BF06B607FEFDCF91B1987F9830C7
:1000B800B1F590EA93B994E896BF06B607FEFDCF6E
:1000C80091B1987F983169F583B984E886BF06B6FF
:1000D80007FEFDCF81B1887F883229F584EA86BF83
:1000E80006B607FEFDCF81B1887F8031F1F481EA41
:1000F80083B984E886BF06B607FEFDCF81B1887F45
:100108008034A9F484EC86BF06B607FEFDCF81B122
:10011800887F803571F483B194E996BF08958FEF95
:1001280008958FEF08958FEF08958FEF08958FEF5B
:06013800089587E0089520
:10013E000E94DC0087E082B982E180B961E070E064
:10014E008FEF90E00E94F7012FEF33EC89E0215002
:10015E0030408040E1F700C0000069E085E090E0AB
:10016E000E9410019FEF27EA31E691502040304067
:10017E00E1F700C0000085E090E00E9454009FEF80
:10018E0029E638E1915020403040E1F700C00000F0
:10019E0090E00E94C0018FEF93EC29E081509040D7
:0A01AE002040E1F700C00000FFCF81
:1001B80061E070E080EF90E00E94F70161E070E09C
:1001C80081E090E00E943B0161E070E082E090E015
:1001D8000E943B0161E070E083E090E00E943B01F7
:1001E8002FEF89EF90E0215080409040E1F700C068
:1001F800000060E070E082E090E00E945D0182E033
:100208000E947E0188E20E947E018CE00E947E01AD
:0802180081E00E947E010895BF
:1002200094EA96BF06B607FEFDCF91B1987F98304D
:1002300009F590EA93B994E896BF06B607FEFDCF9C
:1002400091B1987F9831B1F483B984E886BF06B63E
:1002500007FEFDCF81B1887F883261F463B984E8FD
:1002600086BF06B607FEFDCF81B1887F883211F4C4
:0602700084E986BF089539
:100276006115710521F06130710579F0089547B374
:1002860021E030E0B90102C0660F771F8A95E2F7D8
:10029600CB018095842387BB089547B321E030E0E6
:1002A600B90102C0660F771F8A95E2F7CB01842B4E
:0402B60087BB089565
:1002BA006115710581F061307105D1F448B321E00F
:1002CA0030E0B90102C0660F771F8A95E2F7CB01C9
:1002DA00842B88BB089548B321E030E0B90102C0FD
:1002EA00660F771F8A95E2F7CB018095842388BB36
:0202FA00089565
:1002FC00CF93C82FC1988BB38F709C2F907F892B75
:10030C008BBB0E9431028BB3282F2F7030E1C39F1F
:10031C00C0011124822B8BBB0E9431028FEF99EF0D
:10032C0020E0815090402040E1F700C00000CF91C8
:02033C00089522
:10033E00CF93C82FC19A8BB38F709C2F907F892B30
:10034E008BBB0E9431028BB3282F2F7030E1C39FDD
:10035E00C0011124822B8BBB0E9431028FEF99EFCB
:10036E0020E0815090402040E1F700C00000CF9186
:02037E000895E0
:10038000CF93DF93CDB7DEB72B970FB6F894DEBFD0
:100390000FBECDBF4AE0BE016F5F7F4F0E942602B5
:1003A000CE0101960E9417022B960FB6F894DEBF7D
:0A03B0000FBECDBFDF91CF9108957D
:1003BA00BB27FB015527AA27880F991FAA1FA41735
:1003CA0010F0A41B83955051B9F7A05DAA3308F029
:1003DA00A95DA193009779F7B111B1931192CB015D
:0403EA000C94070266
:1003EE006115710521F06130710531F008959AB3F0
:1003FE00809589238ABB08959AB3892B8ABB089569
:10040E00DC01FC01672F71917723E1F7329704C06D
:10041E007C916D9370836291AE17BF07C8F30895F8
:10042E00CF93DF93EC018881882331F021960E94CF
:0E043E009F0189918111FBCFDF91CF9108952D
:10044C00BB274A3031F4992322F4BDE29095819573
:06045C009F4F0C94DE012D
:10046200C39A8FE19EE40197F1F700C00000C398A0
:020472000895EB
:040474000C940000E4
:00000001FF
